:080000000C945A000C94FB0063
:100008000C9411010C9400000C9400000C94000056
:100018000C9400000C9400000C9400000C94000058
:100028000C9400000C94E7000C9400000C94000061
:100038000C9400000C9400000C9400000C94000038
:100048000C9400000C9400000C940000E8030000DD
:1000580030313233343536373839414243444546F6
:1000680000007265616479002A2A2A426F6F6F6FF7
:100078006D212A2A2A0074696D65200072657374DF
:1000880061727420626F6D6200626F6D62206465D8
:1000980066757365640077726F6E670080C00400D0
:1000A8000400540002006202A4000000F894EE2745
:1000B800ECBBF1E0FBBFEBBFE5BF8DE0A2E0BB27E7
:1000C800ED938A95E9F780E098E0A0E6ED93019733
:1000D800E9F7E6EAF0E085919591009761F0A5913E
:1000E800B59105901590BF01F00105900D9201970B
:1000F800E1F7FB01F0CFEFE5EDBFE8E0EEBFC0E6CA
:10010800D2E00C94870003D024D0FECFFFCFE0E0EC
:10011800EABBEFEFEBBBE0E0E1BBEFEFE2BBE3E014
:10012800E3BFE3E8E2BFE0E0ECBFEBB7E06CEBBFB6
:10013800EBE0E5BFE0E0E4BFEABFA0E11AD1E7D019
:10014800AAE6B0E003D1A4E6B0E00E9409027894E0
:100158000895A8EEB3E00E9409020895AA93619752
:1001680081E1A0E0B0E0E8E5F0E00E9455021A93D2
:100178000A93AB89B0E0EAE0F0E00E942F021E2F5C
:10018800AB89BB27EAE0F0E00E9434020E2FE12F92
:100198001BD1E02F19D119810881649608957A94AA
:1001A80041F4B5D0A0E7B0E0D1D0E9B7EE7FE9BF20
:1001B80009C0E0E0EA93A0E09DD0AEE7B0E0C6D089
:1001C800A72DCCDF089507D1E3E8E2BFA0E6B2E0AF
:1001D800ED91FD913196FE93EE93E415F50530F01F
:1001E800E0E0E0936002E0936102D9DF55C0F3D00C
:1001F800E9B7EE7FE9BF8BD0A4E8B0E0A7D0AAEFBB
:10020800B0E00E94090283D0E8EEF3E02F01ECE3AE
:100218007E2EE9B7E160E9BF3FC0DDD0E9B3E17008
:100228000E945002F0F8E9B3E2700E945002F1F81F
:10023800E9B3E4700E945002F2F8E9B3E8700E9452
:100248005002F3F8F3FE0AC0F2FC05C0F1FC02C04C
:10025800F0FE01C001C002C0E1E001C0E0E00E9480
:1002680017020E945002F4F8E9B70E941702E170E1
:1002780099F44DD0F4FE07C0E9B7EE7FE9BF7724C3
:10028800A1E9B0E004C056944794AEE9B0E05ED06E
:10029800A4EFB1E00E940902E991EFBFF991E99159
:1002A800B991A9919991899179916991F990199048
:1002B80009901895AA93E5B3EF70AE2FE881E07F17
:1002C800EA2BE5BB8DE08A95F1F7AA9A8DE08A952D
:1002D800F1F7AA988DE08A95F1F774C0AA93A881DE
:1002E800E9DFE881E295E883A881E4DF85E88A957B
:1002F800F1F768C0AA93E881F0E0EE59FD4FE0817C
:10030800A981AE0FEBDF6980988022960895A2E05C
:1003180070D0ACE0E3DFA1E06CD0E0E09E2E6E2E62
:100328000895AA93A881AA3011F0681448F0E0E073
:10033800EA939394A92DDEDFA881AA3009F442C07C
:100348006394A89AA881CADFA8983CC0BA93AA93D4
:100358001A93E981FA813196E983FA833197E49116
:100368001E2FE03019F0A12FDCDFF3CF1881239680
:100378000895AA93E4B3E06FE4BBA29AA09AA19A65
:10038800AA98A898A9988880E881E058E093640220
:10039800E881E054E0936502A4E1B0E00E9409021C
:1003A8002DD02CD02BD0A0E285DF88EC90E00197EF
:1003B800F1F7A8E293DFA4E091DFA5E88FDFA6E0DC
:1003C8008DDFA5DF21960895F0E0DE011296AE0FCD
:1003D800BF1FAC91A6CF0A921A92FA926A937A93A7
:1003E8008A939A93AA93BA93EA93FA93EFB7EA9304
:1003F800089574DFA3E0B0E00C940902A0E35ADF8B
:1004080088EC90E00197F1F70895109639F080EDA7
:1004180097E00197F1F7A8951197C9F70895F19515
:10042800E195F0400895EE23E1E009F0EE27089504
:100438000024112490E1AA0FBB1F001C111C0E1AE6
:100448001F0A18F40E0E1F1E01C0A1609A9599F795
:10045800FD01D001089512D0EBDF0EF4E0DF08951E
:10046800E894B7FF04C0A095B09511966894F7FD7D
:10047800D6DFDEDFFD010EF4D2DF0895E894F7FF42
:1004880002C0CDDF6894B7FF06C0A095B09511965D
:1004980000F8039400FA0895E894EE2309F06894AC
:1004A8000895AC0FBD1F05900D928A95E1F7089548
:00000001FF
