:060000000C942A000C9490
:1000060000000C9400000C9400000C9400000C946A
:1000160000000C9400000C9400000C9400000C945A
:1000260000000C9400000C9400000C9400000C944A
:1000360000000C9400000C9400000C9400000C943A
:1000460000000C9400000C9400000C940000F8943E
:10005600EE27ECBBF1E0FBBFEBBFE5BF8DE0A2E016
:10006600BB27ED938A95E9F780E098E0A0E6ED934B
:100076000197E9F7EFE5EDBFE8E0EEBFC0E6D2E0B5
:100086000C946400AA93E881E062E7B98BE18A9553
:10009600F1F7369A349BFECF349AE5B103C0AA93A2
:1000A600E881ECB9219608951A93A0E0EBDF1E2FA4
:1000B60015BBA12FF4DFA4E6B0E00E9481001991E0
:1000C6000895E0E0EBBBEABBE8BBE7BBEFEFE4BBC0
:1000D600E0E0E5BBE2BBE1BBEBB9E8E0EAB9E6E8A4
:1000E600E0BDE0E0E0BDE3E3E9B9E0E2E7B9E6E878
:1000F600E6B9E0E0E0BFD8DFFECFFFCF109639F0DB
:1001060080ED97E00197F1F7A8951197C9F7089543
:00000001FF
