:040000000C942A0032
:100004000C9400000C9400000C9400000C9400006C
:100014000C9400000C9400000C9400000C9400005C
:100024000C9400000C9400000C9400000C9400004C
:100034000C9445000C9400000C9400000C940000F7
:100044000C9400000C9400000C9400000C9400002C
:10005400F894EE27ECBBF1E0FBBFEBBFE5BF8DE00E
:10006400A2E0BB27ED938A95E9F780E098E0A0E64B
:10007400ED930197E9F7EFE5EDBFE8E0EEBFC0E6E9
:10008400D2E00C946A00AA93EA93EFB7EA931A9326
:100094000A931BB10CB10BBBE12FEC7191F42197C6
:1000A400E02FE695E695E883A881AA3010F4E1E014
:1000B40006C0A881AA3110F0E2E001C0E0E0E8BB8C
:1000C400219609911991E991EFBFE991A9911895A8
:1000D400EFEFEABBE0E0EBBBEFEFE7BBE0E0E8BB50
:1000E400E5BBE4BBE2BBE1BBEBB9E0E9EAB9E6E8B6
:1000F400E0BDE0E0E0BDE3E3E9B97894FFCFFFCFF2
:00000001FF
