:100000000C942A000C9447000C9447000C94470071
:100010000C9447000C9447000C9447000C94470044
:100020000C9447000C9447000C9447000C94470034
:100030000C9447000C9447000C9447000C94470024
:100040000C9447000C9447000C9447000C94470014
:100050000C94470011241FBECFE5D8E0DEBFCDBF12
:1000600010E0A0E6B0E0EAE4F3E002C005900D92F3
:10007000AA3BB107D9F720E0AAEBB0E001C01D927E
:10008000AF3BB207E1F70E94B6000C94A3010C94B9
:10009000000061E070E050E040E0842F9B01042EFE
:1000A00001C0220F0A94EAF7209528BB22E02A9586
:1000B000F1F700C026B330E02095309594E03595F7
:1000C00027959A95E1F72F7090E0211106C04F5FB8
:1000D0005F4F4430510509F7DECF20FF0FC026B334
:1000E000207F203F31F42FEF28BB880F880F890F26
:1000F00008952AE12A95F1F700C0F1CF9F5F269578
:10010000E4CF85BB85E082BB8FEC97E00197F1F7E8
:1001100000C0000081E082BB9FE728E381E09150AE
:1001200020408040E1F700C000000895CF93DF93A6
:10013000EC018991811103C0DF91CF9108950E9454
:100140008100F7CF85BB84E082BB8FEC97E00197FD
:10015000F1F700C0000012BA9FE728E381E0915058
:1001600020408040E1F700C0000008958FEF8ABB77
:100170001BBA9FE097BB88BB84BB81BB88E30E940E
:10018000A2008FEC97E00197F1F700C0000081E03A
:100190000E94A200EFECF7E03197F1F700C00000F9
:1001A0008EE00E94A2008FEC97E00197F1F700C06B
:1001B000000080E80E94A200EFECF7E03197F1F731
:1001C00000C000008FE00E94A200FFEF20E732E0B5
:1001D000F15020403040E1F700C0000084E890E09A
:1001E0000E9496000EEB10E0CAEBD0E00E9449009E
:1001F00089938FE19EE40197F1F700C00000FE01B2
:100200003197E081F0E0E05AFF4F80810E94810049
:100210000C171D0759F781E00E94A2008FE890E0BB
:100220000E9496000AEB10E0F12CE12C0E9449009C
:10023000F80191918F01891719F0EE24E394F12CC4
:100240008AE20E9481000C171D0781F781E0EF28E8
:1002500009F062C00E94A2008CE990E00E94960022
:10026000FFEF21EE34E0F15020403040E1F700C0D4
:1002700000008EE20E9481008FEF91EEE4E0815059
:100280009040E040E1F700C000008EE20E94810053
:10029000FFEF21EE34E0F15020403040E1F700C0A4
:1002A00000008EE20E9481008FEF94E3ECE0815029
:1002B0009040E040E1F700C0000081E00E94A20011
:1002C00084EA90E00E949600979A8F988E9A969A68
:1002D00090E482B3892782BBE091BE00F0E0EF5842
:1002E000FF4F80818BBB8091BE008F5F8A3020F5ED
:1002F0008093BE008FE7EAE1F6E08150E040F040F5
:10030000E1F700C0000087991AC08799E2CF35E86D
:100310003A95F1F70000F9CF0E94A2008DEA90E033
:100320000E949600FFEF2EE934E2F1502040304069
:10033000E1F700C000006FCF1092BE00DBCF25E8D0
:0A0340002A95F1F7DFCFF894FFCF04
:10034A003738392F343536583132332D43303D2B37
:10035A00003F065B4F666D7D077F6F777C395E795C
:10036A007100764073657420506173733A200045BA
:10037A006E74657220706173733A200057656C63FE
:10038A006F6D6500436F756E74696E670057726FA3
:0A039A006E6720706173732100008C
:00000001FF
